:1000000032C1000088C70000B1C70000DAC7000095
:100010000C940C080C9437080C9462080C948D080E
:100020000C94B80851C100004FC100004DC1000040
:100030004BC100000C94C00F47C1000045C1000037
:1000400043C1000041C100003FC100003DC10000AC
:100050003BC1000039C1000037C100000C94E30827
:1000600033C100000C94580C0C948E0C2DC1000070
:100070002BC1000029C1000027C1000025C10000DC
:1000800023C1000021C100001FC100001DC10000EC
:100090000C94E40C0C941A0D17C1000015C100005B
:1000A00013C1000011C100000FC100000DC100000C
:1000B0000BC1000009C1000007C1000005C100001C
:1000C00003C1000001C100000C9449100C94700D94
:1000D0000C94A60DF9C000000C94FC0D0C94320E8B
:1000E000F3C0000065072F07370743075007710764
:1000F0007E07B609BB09C009CA09D4094D0ADE0941
:10010000E609EE09F809020A0C0A1B0A250A4D0A3B
:100110002F0A390A430A710A740A630A670A6D0AC8
:10012000AB0A780A7C0A820A860A8A0A900A940A2A
:10013000980AAB0A9E0AA20AA60A00000A0B020944
:100140000C0D0E0807030401000000000000000071
:10015000000000000000000000000000000000009F
:10016000000000000000121110000000000000005C
:10017000000000000000000000000000000000007F
:1001800001021020200808102040102040800201A9
:10019000020108040201010204081020408080408E
:1001A000201008040201800402018040201008048D
:1001B000020108040201010204081020408001022B
:1001C00004081020408005050505070508080808F3
:1001D000020202020A0A08080404040401010101DF
:1001E00001010101030303030303030304070707DA
:1001F0000C0C0C0C0C0C0C0C02020202060606067F
:10020000060606060B0B0B0B0B0B0B0B000020005E
:100210002300260029002C002F00320000010000DE
:1002200003010601090100002200250028002B001F
:100230002E003100340002010000050108010B010D
:1002400000002100240027002A002D003000330088
:1002500001010000040107010A010200B70C430D6F
:10026000CF0D5B0EC70E11241FBECFEFD1E2DEBF54
:10027000CDBF00E00CBF12E0A0E0B2E0E2EBF6E29E
:1002800000E00BBF02C007900D92A637B107D9F767
:1002900025E0A6E7B2E001C01D92A138B207E1F760
:1002A00011E0C3E3D1E000E006C021970109802FEF
:1002B000FE010E943413CE32D10780E00807A9F76F
:1002C0000E94B9100C9457139BCE662311F061E085
:1002D00001C060E00C94AC0A662311F061E001C03B
:1002E00060E00C94E80AFA0130E02830310511F49E
:1002F00024E030E0813081F028F08230B9F08330A2
:10030000F9F008952E9FA0012F9F500D3E9F500D94
:10031000112489EA92E01DC02E9FA0012F9F500D4D
:100320003E9F500D112486E493E013C02E9FA00140
:100330002F9F500D3E9F500D112483EE93E009C076
:100340002E9FA0012F9F500D3E9F500D112480E83D
:1003500094E00C94D20E3F924F925F926F927F92F4
:100360008F929F92AF92BF92CF92DF92EF92FF92C5
:100370000F931F93CF93DF93CDB7DEB761970FB67F
:10038000F894DEBF0FBECDBF40901A0250901B0202
:1003900060901C0270901D0220E030E0A901C301B2
:1003A000B2010E94AB1287FF09C077FA709477F808
:1003B000709460E070E080E89FE303C060E070E06C
:1003C000CB010E94C81184E087DF20911E0230918A
:1003D0001F024091200250912102C301B2010E94EC
:1003E0006011209122023091230240912402509109
:1003F00025020E94AF122B013C0120E030E040E8D2
:1004000053E40E945C1187FF0EC020E030E0A90198
:10041000C301B2010E94AB1287FD07C0C301B20144
:100420000E94CD1103C06FEF01C060E070E08091C9
:10043000160275D71F92332433943F9248E3842EDB
:1004400042E0942EAA24A394B12C67E3C62E62E066
:10045000D62EEE24E394F12C06E312E02BE535E0F2
:1004600047E755E065E775E083E795E09AD3A0910B
:100470007505B091760540917705509178052FEF7D
:100480003FE70E9451136B017C019A01A1E0B0E8A3
:100490000E943C13AB01BC014C0D5D1D6E1D7F1D08
:1004A0008091730590917405092E000CAA0BBB0B6B
:1004B0008A019B01080F191F2A1F3B1FC901B801A0
:1004C0000E94FB1120910E0230910F024091100208
:1004D000509111020E94AF122B013C0120910A029F
:1004E00030910B0240910C0250910D0260E070E0DF
:1004F00080E89FE30E9460116B017C0120915F0501
:10050000309160054091610550916205C301B201CF
:100510000E94F7109B01AC01C701B6010E94AF1207
:100520006B017C0120916305309164054091650564
:100530005091660560912E0270912F0280913002D9
:10054000909131020E94AF129B01AC01C701B6012C
:100550000E94F71020912A0230912B0240912C0228
:1005600050912D020E9460116D877E878F87988B36
:100570009B01AC01609126027091270280912802B4
:10058000909129020E94AF1260936F0570937005DD
:10059000809371059093720569E775E08FE695E0A9
:1005A0002BD484E089833A823B823C823D823E8226
:1005B0003F823886A3E3B5E0CE0101960F900F90FD
:1005C0009C018D0145E00335140719F1F801C19034
:1005D000D190E190F1908F01F90141919F01042E9A
:1005E000000C550B660B770BC416D506E606F7060E
:1005F00049F3FC014191CF01042E000C550B660B11
:10060000770B4D935D936D937D93F5E0A335BF0715
:1006100081F780917905898780917A058A87809111
:100620007B058B8780917C058C8760915705709145
:1006300058058091590590915A050E94CD11262F99
:100640006091530570915405809155059091560520
:10065000298B0E94CD11862F298944E050E0BE01EC
:10066000675F7F4F40DE1F9281E08F9388E3882E83
:1006700082E0982EAA24A394B12C27E3C22E22E074
:10068000D22EEE24E394F12C06E312E02BE535E0C4
:1006900047E755E065E775E083E795E0CDD2409206
:1006A0005F055092600560926105709262050D854C
:1006B0001E852F8538890093630510936405209368
:1006C0006505309366050F900F9061960FB6F8940C
:1006D000DEBF0FBECDBFDF91CF911F910F91FF9075
:1006E000EF90DF90CF90BF90AF909F908F907F90D2
:1006F0006F905F904F903F900895CF92DF92EF926E
:10070000FF920F931F93CF93DF9310922E051092B9
:100710002D058EE0EFE6F5E0DF011D928A95E9F701
:10072000CFE2D5E080E4FE0111928A95E9F7C12C71
:10073000D12C7601C394CCAEDDAEEEAEFFAE61E05F
:1007400084E0C3DD0AE012E061E0D8011C968C91E0
:1007500003D7C882D982EA82FB8284E090E0A0E0DD
:10076000B0E08C839D83AE83BF83C886D986EA863A
:10077000FB86CC86DD86EE86FF86C88AD98AEA8A21
:10078000FB8ACC8ADD8AEE8AFF8AC88ED98EEA8EF1
:10079000FB8ECC8EDD8EEE8EFF8EC8A2D9A2EAA291
:1007A000FBA21CA21DA21EA21FA280E090E0A0E856
:1007B000BFE388A799A7AAA7BBA71CA61DA61EA62C
:1007C0001FA6F80180859185A285B38588AB99AB7A
:1007D000AAABBBAB80A591A5A2A5B3A58CAB9DABE5
:1007E000AEABBFABDF91CF911F910F91FF90EF9018
:1007F000DF90CF90089580916B0590916C05A0914A
:100800006D05B0916E050197A105B10561F482E017
:1008100090E0A0E0B0E080936B0590936C05A0930E
:100820006D05B0936E0580912F0590913005A091D4
:100830003105B09132050197A105B10561F482E05F
:1008400090E0A0E0B0E080932F0590933005A09356
:100850003105B0933205089502978431910540F433
:10086000FC01E45BFD4F8081082E000C990B08957C
:100870008FEF9FEF0895CF93DF93EC0160E070E07E
:100880006C177D070CF5072E000C880B990B0E9446
:10089000FB1120E030E0A9010E94F81020E030E0D8
:1008A000A9010E94F81020E030E040E450E40E94EA
:1008B000F81020E030E040E450E40E94F7100E947D
:1008C000C8116F5F7F4FDCCFDF91CF910895CF9339
:1008D000DF938091780290917902A9D6EC01809102
:1008E0007C0290917D02C7DF809176029091770221
:1008F0009ED6019739F480917A0290917B02CD2B9C
:1009000019F506C080917A0290917B022197E1F45B
:100910008F3F9F4769F480918002909181020196F8
:10092000909381028093800210927B0210927A024F
:1009300080917A0290917B02019690937B02809342
:100940007A0281E090E01BC08130904869F4809188
:100950008202909183020196909383028093820297
:1009600010927B0210927A0280917A0290917B021F
:10097000019790937B0280937A028FEF9FEF909381
:100980007F0280937E02DF91CF910895CF93DF9312
:1009900080917602909177024AD6EC0180917C0298
:1009A00090917D0268DF80917802909179023FD624
:1009B000019739F480917A0290917B02219719F581
:1009C00006C080917A0290917B02CD2BE1F48F3F9B
:1009D0009F4769F4809180029091810201969093E3
:1009E00081028093800210927B0210927A028091A1
:1009F0007A0290917B02019690937B0280937A0217
:100A000081E090E01BC08130904869F480918202BF
:100A100090918302019690938302809382021092B8
:100A20007B0210927A0280917A0290917B02019768
:100A300090937B0280937A028FEF9FEF90937F02D7
:100A400080937E02DF91CF910895CF93DF938091C1
:100A5000860290918702EBD5EC0180918A029091F9
:100A60008B0209DF8091840290918502E0D5019785
:100A700039F48091880290918902CD2B49F406C007
:100A80008091880290918902219711F4019601C00A
:100A900001979093890280938802DF91CF91089506
:100AA000CF93DF938091840290918502C0D5EC01B1
:100AB00080918A0290918B02DEDE80918602909175
:100AC0008702B5D5019739F4809188029091890207
:100AD000219749F406C08091880290918902CD2B1C
:100AE00011F4019601C001979093890280938802C6
:100AF000DF91CF910895CF93DF93809194029091ED
:100B0000950295D5EC018091980290919902B3DEFF
:100B100080919202909193028AD5019739F4809145
:100B2000960290919702CD2B49F406C080919602CF
:100B300090919702219711F4019601C0019790932B
:100B4000970280939602DF91CF910895CF93DF9320
:100B500080919202909193026AD5EC018091980263
:100B60009091990288DE80919402909195025FD5D0
:100B7000019739F48091960290919702219749F458
:100B800006C08091960290919702CD2B11F40196A8
:100B900001C001979093970280939602DF91CF91C5
:100BA0000895AF92BF92CF92DF92EF92FF920F9390
:100BB0001F93CF93DF93CDB7DEB75C016B017A0152
:100BC000F90120E030E040E85FE3608171818281DB
:100BD00093810E945C11811124C0D801EC919EE0A8
:100BE0009E9FF0011124EA58FD4F24813581F501C3
:100BF00031832083EC919E9FF0011124EA58FD4F30
:100C000022853385D6012D933C93D801EC919E9F8C
:100C1000F0011124EA58FD4F84859585F7019183F1
:100C20008083DF91CF911F910F91FF90EF90DF9024
:100C3000CF90BF90AF9008958F929F92CF92DF9206
:100C4000EF92FF920F931F93CF93DF93CDB7DEB751
:100C5000790120E030E040E85FE3D7016D917D91BC
:100C60008D919C910E945C11882309F4A3C0D80146
:100C7000EC91D6018C9190E02EE0D22EDE9EF00118
:100C80001124EA58FD4F91838083D801EC91D4015F
:100C90008C9190E0DE9EF0011124EA58FD4F938381
:100CA0008283D801EC91DE9EF0011124EA58FD4FB9
:100CB0008081918160E050D4D801EC91DE9EF001FA
:100CC0001124EA58FD4F8281938160E045D4D80118
:100CD000EC91DE9EF0011124EA58FD4F8081918154
:100CE00061E076D4D801EC91DE9EF0011124EA583F
:100CF000FD4F8281938161E06BD4D801EC91DE9E3F
:100D0000F0011124EA58FD4F13861286EC91DE9E05
:100D1000F0011124EA58FD4F158614868C9181301C
:100D200061F1B8F0823009F03CC08091920290915C
:100D3000930292DD41E050E06BE775E078D080915E
:100D400094029091950288DD41E050E066EA75E0FA
:100D500027C080917602909177027EDD41E050E0DD
:100D600067E674E064D0809178029091790274DD36
:100D700041E050E066EC74E013C0809184029091F1
:100D800085026ADD41E050E065E275E050D0809177
:100D900086029091870260DD41E050E060E575E0F9
:100DA00046D080E090E0A0E8BFE3F7018083918324
:100DB000A283B38320E030E040E85FE3D7016D9188
:100DC0007D918D919C910E945C1181110AC0D80186
:100DD000EC91BEE0EB9FF0011124EA58FD4F118623
:100DE0001086DF91CF911F910F91FF90EF90DF90D0
:100DF000CF909F908F900895DB01FC01408151813D
:100E000062817381EDE7F5E04083518362837383F0
:100E100083818C93828111968C9311978181129694
:100E20008C931297808113968C930895089588303F
:100E300008F070C0A82FB0E0AA0FBB1FA75CBD4F81
:100E400011967C936E9390E0FC013197E730F105A9
:100E5000A0F58827EE58FF4F8F4F0C9434138091E4
:100E600069008C7F482B40936900E89A089580912F
:100E70006900440F551F440F551F837F482B409333
:100E80006900E99A08958091690074E0440F551F44
:100E90007A95E1F78F7C482B40936900EA9A089590
:100EA0008091690066E0440F551F6A95E1F78F73E2
:100EB000482B40936900EB9A089580916A008C7FDB
:100EC000482B40936A00EC9A089580916A00440F81
:100ED000551F440F551F837F482B40936A00ED9A9E
:100EE000089580916A0024E0440F551F2A95E1F788
:100EF0008F7C482B40936A00EE9A089580916A0097
:100F000096E0440F551F9A95E1F78F73482B409355
:100F10006A00EF9A08951F920F920FB60F92112454
:100F20000BB60F922F933F934F935F936F937F93E3
:100F30008F939F93AF93BF93EF93FF93E0913D0205
:100F4000F0913E021995FF91EF91BF91AF919F9162
:100F50008F917F916F915F914F913F912F910F9062
:100F60000BBE0F900FBE0F901F9018951F920F92FF
:100F70000FB60F9211240BB60F922F933F934F93FE
:100F80005F936F937F938F939F93AF93BF93EF93F1
:100F9000FF93E0913F02F09140021995FF91EF918C
:100FA000BF91AF919F918F917F916F915F914F9181
:100FB0003F912F910F900BBE0F900FBE0F901F907F
:100FC00018951F920F920FB60F9211240BB60F9225
:100FD0002F933F934F935F936F937F938F939F9341
:100FE000AF93BF93EF93FF93E0914102F0914202E0
:100FF0001995FF91EF91BF91AF919F918F917F9143
:101000006F915F914F913F912F910F900BBE0F9079
:101010000FBE0F901F9018951F920F920FB60F9250
:1010200011240BB60F922F933F934F935F936F93BF
:101030007F938F939F93AF93BF93EF93FF93E09131
:101040004302F09144021995FF91EF91BF91AF9146
:101050009F918F917F916F915F914F913F912F91D0
:101060000F900BBE0F900FBE0F901F9018951F9200
:101070000F920FB60F9211240BB60F922F933F933E
:101080004F935F936F937F938F939F93AF93BF9390
:10109000EF93FF93E0913902F0913A021995FF9195
:1010A000EF91BF91AF919F918F917F916F915F91E0
:1010B0004F913F912F910F900BBE0F900FBE0F904D
:1010C0001F9018951F920F920FB60F9211240BB616
:1010D0000F922F933F934F935F936F937F938F93D1
:1010E0009F93AF93BF93EF93FF93E0913B02F091F7
:1010F0003C021995FF91EF91BF91AF919F918F9114
:101100007F916F915F914F913F912F910F900BBE07
:101110000F900FBE0F901F9018951F920F920FB651
:101120000F9211240BB60F922F933F934F935F931F
:101130006F937F938F939F93AF93BF93EF93FF939F
:10114000E0914502F09146021995FF91EF91BF9110
:10115000AF919F918F917F916F915F914F913F914F
:101160002F910F900BBE0F900FBE0F901F901895F0
:101170001F920F920FB60F9211240BB60F922F935E
:101180003F934F935F936F937F938F939F93AF930F
:10119000BF93EF93FF93E0914702F09148021995B6
:1011A000FF91EF91BF91AF919F918F917F916F913F
:1011B0005F914F913F912F910F900BBE0F900FBEFB
:1011C0000F901F9018951F920F920FB60F92112437
:1011D0002F933F938F939F93AF93BF938091A102DF
:1011E0009091A202A091A302B091A4023091A0021A
:1011F00023E0230F2D3720F40196A11DB11D05C05A
:1012000026E8230F0296A11DB11D2093A002809312
:10121000A1029093A202A093A302B093A402809192
:10122000A5029091A602A091A702B091A8020196F2
:10123000A11DB11D8093A5029093A602A093A702C1
:10124000B093A802BF91AF919F918F913F912F9141
:101250000F900FBE0F901F901895789484B5826000
:1012600084BD84B5816084BD85B5826085BD85B54A
:10127000816085BDEEE6F0E0808181608083E1E8F9
:10128000F0E0108280818260808380818160808331
:10129000E0E8F0E0808181608083E1EBF0E0808134
:1012A00084608083E0EBF0E0808181608083E1E90D
:1012B000F0E0808182608083808181608083E0E9CA
:1012C000F0E0808181608083E1EAF0E080818260EB
:1012D0008083808181608083E0EAF0E080818160AA
:1012E0008083E1E2F1E0808182608083808181609F
:1012F0008083E0E2F1E0808181608083EAE7F0E0D2
:10130000808184608083808182608083808181602D
:1013100080838081806880831092C10008951F932C
:10132000CF93DF93182FEB0161E016D1209711F4D2
:1013300060E004C0CF3FD10531F461E0812FDF913F
:10134000CF911F9145C1E12FF0E0E65CFE4FE491A3
:101350004E2F50E0FA013197E231F10508F09DC0BF
:101360008827E758FF4F8F4F0C94341384B580685B
:1013700084BDC7BD97C084B5806284BDC8BD92C01E
:1013800080918000806880938000D0938900C09312
:10139000880088C080918000806280938000D09314
:1013A0008B00C0938A007EC080918000886080930B
:1013B0008000D0938D00C0938C0074C08091B000E9
:1013C00080688093B000C093B3006CC08091B0007F
:1013D00080628093B000C093B40064C0809190009C
:1013E000806880939000D0939900C09398005AC071
:1013F00080919000806280939000D0939B00C09376
:101400009A0050C080919000886080939000D093A3
:101410009D00C0939C0046C08091A000806880938E
:10142000A0008091A0008F7B8093A000D093A900A2
:10143000C093A80037C08091A00080628093A00074
:10144000D093AB00C093AA002DC08091A00088600B
:101450008093A000D093AD00C093AC0023C08091D6
:101460002001806880932001D0932901C093280136
:1014700019C080912001806280932001D0932B01BC
:10148000C0932A010FC080912001886080932001C1
:10149000D0932D01C0932C0105C0C038D1050CF0AC
:1014A0004CCF46CFDF91CF911F91089590E0FC0182
:1014B0003197E231F10508F04EC08827E557FF4F1C
:1014C0008F4F0C943413809180008F7703C08091EC
:1014D00080008F7D80938000089580918000877FB9
:1014E000F9CF84B58F7702C084B58F7D84BD089510
:1014F0008091B0008F7703C08091B0008F7D809382
:10150000B0000895809190008F7707C0809190007F
:101510008F7D03C080919000877F80939000089515
:101520008091A0008F7707C08091A0008F7D03C0BD
:101530008091A000877F8093A00008958091200172
:101540008F7707C0809120018F7D03C0809120019B
:10155000877F809320010895CF93DF9390E0FC0173
:10156000E058FE4F2491FC01EA53FE4F84918823FA
:1015700061F190E0880F991FFC01E05CFD4FC5917F
:10158000D491FC01EA5DFD4FA591B491611109C0B0
:101590009FB7F8948881209582238883EC912E232D
:1015A0000BC0623061F49FB7F8943881822F809528
:1015B00083238883EC912E2B2C939FBF06C08FB77B
:1015C000F894E8812E2B28838FBFDF91CF91089567
:1015D0001F93CF93DF93282F30E0F901E65CFE4F95
:1015E0008491F901E058FE4FD491F901EA53FE4F7E
:1015F000C491CC23C1F0162F811158DFEC2FF0E0FD
:10160000EE0FFF1FEA5DFD4FA591B4918FB7F894DF
:10161000111105C09C91ED2FE095E92302C0EC91DA
:10162000ED2BEC938FBFDF91CF911F910895CF9356
:10163000DF93282F30E0F901E65CFE4F8491F90139
:10164000E058FE4FD491F901EA53FE4FC491CC23E8
:1016500089F081112BDFEC2FF0E0EE0FFF1FE45F2C
:10166000FD4FA591B491EC91ED2381E090E021F440
:1016700080E002C080E090E0DF91CF910895FC010E
:10168000918D228D892F90E0805C9F4F821B910964
:101690008F7399270895FC01918D828D981731F0F1
:1016A000828DE80FF11D858D90E008958FEF9FEFFB
:1016B0000895FC01918D828D981761F0828DDF0174
:1016C000A80FB11D5D968C91928D9F5F9F73928F35
:1016D00090E008958FEF9FEF0895FC01848DDF0166
:1016E000A80FB11DA35ABF4F2C91848D90E0019695
:1016F0008F739927848FA689B7892C93A089B18984
:101700008C9180648C93938D848D981306C002888D
:10171000F389E02D80818F7D80830895CF93DF93BF
:10172000EC01888D8823C1F0EA89FB89808185FDE1
:1017300005C0A889B9898C9186FD0EC00FB607FC3B
:10174000F5CF808185FFF2CFA889B9898C9185FF7B
:10175000EDCFCE01C2DFE8CFDF91CF910895EF92B8
:10176000FF920F931F93CF93DF93EC0181E0888F5B
:101770009B8D8C8D981305C0E889F989808185FD42
:1017800023C0F62E0B8D10E00F5F1F4F0F73112734
:10179000E02E8C8DE8120BC00FB607FCFACFE8895B
:1017A000F989808185FFF5CFCE0197DFF2CF8B8D50
:1017B000FE01E80FF11DE35AFF4FF0820B8FEA891B
:1017C000FB898081806207C0EE89FF896083E88998
:1017D000F98980818064808381E090E0DF91CF91FE
:1017E0001F910F91FF90EF900895CF92DF92EF92AB
:1017F000FF921F93CF93DF93EC016A017B01122FBD
:10180000E889F98982E080834115514E61057105AF
:10181000A9F060E079E08DE390E0A701960102D79E
:10182000DA01C9010197A109B109B695A795979564
:101830008795AC01411580E15807A0F0E889F98946
:10184000108260E874E88EE190E0A7019601EAD684
:10185000BA01A9014150510961097109769567954D
:1018600057954795EC85FD855083EE85FF85408330
:10187000188EEC89FD891083EA89FB89808180615B
:101880008083EA89FB89808188608083EA89FB897B
:10189000808180688083EA89FB8980818F7D808355
:1018A000DF91CF911F91FF90EF90DF90CF9008953F
:1018B0001F920F920FB60F9211240BB60F922F9317
:1018C0008F939F93EF93FF93E091B902F091BA0247
:1018D0008081E091BF02F091C00282FD12C0908130
:1018E0008091C2028F5F8F732091C302821751F0E3
:1018F000E091C202F0E0E755FD4F958F8093C20260
:1019000001C08081FF91EF919F918F912F910F9056
:101910000BBE0F900FBE0F901F9018951F920F9245
:101920000FB60F9211240BB60F922F933F934F9344
:101930005F936F937F938F939F93AF93BF93EF9337
:10194000FF9389EA92E0C9DEFF91EF91BF91AF91D9
:101950009F918F917F916F915F914F913F912F91C7
:101960000F900BBE0F900FBE0F901F901895E9EAD5
:10197000F2E01382128288EE93E0A0E0B0E084836C
:101980009583A683B78384E692E09183808385EC78
:1019900090E09587848784EC90E09787868780EC39
:1019A00090E0918B808B81EC90E0938B828B82EC2A
:1019B00090E0958B848B86EC90E0978B868B118ED4
:1019C000128E138E148E08951F920F920FB60F92DF
:1019D00011240BB60F922F938F939F93EF93FF9346
:1019E000E0915603F09157038081E0915C03F09100
:1019F0005D0382FD12C0908180915F038F5F8F73C2
:101A000020916003821751F0E0915F03F0E0EA5B00
:101A1000FC4F958F80935F0301C08081FF91EF9110
:101A20009F918F912F910F900BBE0F900FBE0F9033
:101A30001F9018951F920F920FB60F9211240BB69C
:101A40000F922F933F934F935F936F937F938F9357
:101A50009F93AF93BF93EF93FF9386E493E03DDEB4
:101A6000FF91EF91BF91AF919F918F917F916F9176
:101A70005F914F913F912F910F900BBE0F900FBE32
:101A80000F901F901895E6E4F3E01382128288EE1F
:101A900093E0A0E0B0E084839583A683B78384E6D7
:101AA00092E0918380838DEC90E0958784878CEC25
:101AB00090E09787868788EC90E0918B808B89EC0B
:101AC00090E0938B828B8AEC90E0958B848B8EECEC
:101AD00090E0978B868B118E128E138E148E089544
:101AE0001F920F920FB60F9211240BB60F922F93E5
:101AF0008F939F93EF93FF93E091F303F091F4039F
:101B00008081E091F903F091FA0382FD12C0908187
:101B10008091FC038F5F8F732091FD03821751F03A
:101B2000E091FC03F0E0ED51FC4F958F8093FC03B6
:101B300001C08081FF91EF919F918F912F910F9024
:101B40000BBE0F900FBE0F901F9018951F920F9213
:101B50000FB60F9211240BB60F922F933F934F9312
:101B60005F936F937F938F939F93AF93BF93EF9305
:101B7000FF9383EE93E0B1DDFF91EF91BF91AF91C1
:101B80009F918F917F916F915F914F913F912F9195
:101B90000F900BBE0F900FBE0F901F901895E3EEA5
:101BA000F3E01382128288EE93E0A0E0B0E0848339
:101BB0009583A683B78384E692E09183808385ED45
:101BC00090E09587848784ED90E09787868780ED05
:101BD00090E0918B808B81ED90E0938B828B82EDF6
:101BE00090E0958B848B86ED90E0978B868B118EA1
:101BF000128E138E148E08951F920F920FB60F92AD
:101C000011240BB60F922F938F939F93EF93FF9313
:101C1000E0919004F09191048081E0919604F0911C
:101C2000970482FD12C09081809199048F5F8F7319
:101C300020919A04821751F0E0919904F0E0E05865
:101C4000FB4F958F8093990401C08081FF91EF91A4
:101C50009F918F912F910F900BBE0F900FBE0F9001
:101C60001F9018951F920F920FB60F9211240BB66A
:101C70000F922F933F934F935F936F937F938F9325
:101C80009F93AF93BF93EF93FF9380E894E025DD9C
:101C9000FF91EF91BF91AF919F918F917F916F9144
:101CA0005F914F913F912F910F900BBE0F900FBE00
:101CB0000F901F901895E0E8F4E01382128288EEEE
:101CC00093E0A0E0B0E084839583A683B78384E6A5
:101CD00092E09183808385E391E09587848784E314
:101CE00091E09787868780E391E0918B808B81E3F9
:101CF00091E0938B828B82E391E0958B848B86E3DA
:101D000091E0978B868B118E128E138E148E089510
:101D10008F929F92AF92BF92CF92DF92EF92FF92FB
:101D20000F931F93CF93DF937C018B016C0182E0B3
:101D3000C80ED11C4701E5E08E0E911CC0E0D0E03A
:101D4000F60161916F014AE050E0C801C5D05C0125
:101D50006EE2C80167D08A0D9B1DC80FD91FC81439
:101D6000D90471F74AE050E0F7016581C801B4D0A9
:101D70008C0F9D1FDF91CF911F910F91FF90EF90DE
:101D8000DF90CF90BF90AF909F908F900895EDE13E
:101D9000F5E084E792E091838083128213821482BB
:101DA00015820895CF92DF92EF92FF920F931F93C7
:101DB000CF93DF936C017A018B01C0E0D0E0CE15A8
:101DC000DF0589F0D8016D918D01D601ED91FC916F
:101DD0000190F081E02DC6011995892B11F47E0147
:101DE00002C02196ECCFC701DF91CF911F910F91D7
:101DF000FF90EF90DF90CF9008956115710579F015
:101E0000FB0101900020E9F73197AF01461B570B0A
:101E1000DC01ED91FC910280F381E02D199480E0CA
:101E200090E00895DC01ED91FC910190F081E02DAE
:101E300019944F925F926F927F92EF92FF920F935D
:101E40001F93CF93DF93CDB7DEB7A1970FB6F8946A
:101E5000DEBF0FBECDBF7C01FA01CB0119A222303B
:101E600008F42AE08E010F5D1F4F422E512C612C89
:101E7000712CBF01A3019201D5D3F901CA01015010
:101E800011096A3014F4605D01C0695CD8016C937B
:101E9000232B242B252B69F7B801C701AEDFA196B0
:101EA0000FB6F894DEBF0FBECDBFDF91CF911F916B
:101EB0000F91FF90EF907F906F905F904F900895FB
:101EC0002115310541F4DC01ED91FC910190F08187
:101ED000E02D642F1994ADCF9A01462F50E060E0B9
:101EE00070E0EECF8230A9F028F4882349F08130E9
:101EF00051F00895843021F1E8F0853039F10895EA
:101F000010926E00089580916F008D7F80936F0016
:101F10000895809170008D7F8093700081E08093A0
:101F2000B0008091B100887F84608093B1001092EE
:101F3000B3000895809171008D7F809371000895A2
:101F4000809172008D7F809372000895809173005C
:101F50008D7F809373000895CF93C82F809149029D
:101F60008C1307C0EAE5F2E0E4918FEF8093490219
:101F700001C0EFEF8E2FB6DF60E08C2FCF9128CB22
:101F80001F920F920FB60F9211240BB60F922F9340
:101F90003F934F935F936F937F938F939F93AF93F1
:101FA000BF93EF93FF938091260590912705A09111
:101FB0002805B0912905892B8A2B8B2B51F1809113
:101FC0002305E0912405F0912505908189278083E0
:101FD0008091260590912705A0912805B0912905AB
:101FE000181619061A061B06BCF480912605909156
:101FF0002705A0912805B09129050197A109B109EC
:102000008093260590932705A0932805B093290572
:1020100003C080914902A0DFFF91EF91BF91AF9182
:102020009F918F917F916F915F914F913F912F91F0
:102030000F900BBE0F900FBE0F901F90189540E8A9
:1020400055E260E070E080E090E006D061E08DE075
:1020500083DA60E08DE0BCCA8130910571F01CF438
:10206000892B39F008958230910559F0039769F072
:10207000089526E089EA92E00BC026E086E493E02A
:1020800007C026E083EE93E003C026E080E894E0FA
:10209000ACCB1F920F920FB60F9211240BB60F927A
:1020A0002F933F934F935F936F937F938F939F9360
:1020B000AF93BF93EF93FF938FE89DEF909325012C
:1020C0008093240180912B0590912C05019719F4A0
:1020D00061E08DE07DDA34D0FF91EF91BF91AF9157
:1020E0009F918F917F916F915F914F913F912F9130
:1020F0000F900BBE0F900FBE0F901F9018958FE89A
:102100009DEF9093250180932401A3E7B0E08C918B
:102110008E7F8C93E0E2F1E080818C7F8083E1E22E
:10212000F1E08081877E80838081846080838081EC
:102130008C7F80838C9181608C93089581E00895D9
:1021400080912A0591E0980F90932A05882339F011
:1021500021E030E030932C0520932B0507C07894C4
:102160000E94AB01F89480912A05815080932A0542
:1021700008950F931F93CF93DF931F92CDB7DEB7D0
:1021800081E089836AD85BDF00914A0210914B029B
:10219000F801118210820E947D03B1DF81E0F80115
:1021A00020813181232B09F080E089837894789411
:1021B0008981882389F081E0F80120813181232BF6
:1021C00009F080E089838981882311F0B7DF02C09C
:1021D00080E090E08983ECCF0E94FB03F89480E0DC
:1021E00090E00F90DF91CF911F910F91089550587B
:1021F000BB27AA270ED075C166D130F06BD120F075
:1022000031F49F3F11F41EF45BC10EF4E095E7FB3F
:1022100051C1E92F77D180F3BA176207730784079A
:10222000950718F071F49EF58FC10EF4E0950B2E12
:10223000BA2FA02D0B01B90190010C01CA01A00118
:102240001124FF27591B99F0593F50F4503E68F173
:102250001A16F040A22F232F342F4427585FF3CFB4
:10226000469537952795A795F0405395C9F77EF485
:102270001F16BA0B620B730B840BBAF09150A1F0CE
:10228000FF0FBB1F661F771F881FC2F70EC0BA0F54
:10229000621F731F841F48F4879577956795B795DC
:1022A000F7959E3F08F0B3CF9395880F08F09927D4
:1022B000EE0F979587950895D9D008F481E0089599
:1022C0000CD00FC107D140F0FED030F021F45F3FB9
:1022D00019F0F0C0511139C1F3C014D198F399230A
:1022E000C9F35523B1F3951B550BBB27AA276217DA
:1022F0007307840738F09F5F5F4F220F331F441F1F
:10230000AA1FA9F333D00E2E3AF0E0E830D0915056
:102310005040E695001CCAF729D0FE2F27D0660F43
:10232000771F881FBB1F261737074807AB07B0E882
:1023300009F0BB0B802DBF01FF2793585F4F2AF098
:102340009E3F510568F0B6C000C15F3FECF3983E78
:10235000DCF3869577956795B795F7959F5FC9F7F5
:10236000880F911D9695879597F90895E1E0660F7E
:10237000771F881FBB1F621773078407BA0720F0F7
:10238000621B730B840BBA0BEE1F88F7E095089560
:1023900004D06894B111D9C00895BCD088F09F577B
:1023A00090F0B92F9927B751A0F0D1F0660F771FA1
:1023B000881F991F1AF0BA95C9F712C0B13081F081
:1023C000C3D0B1E00895C0C0672F782F8827B85FC9
:1023D00039F0B93FCCF3869577956795B395D9F7E2
:1023E0003EF490958095709561957F4F8F4F9F4FEC
:1023F0000895E89409C097FB3EF4909580957095F8
:1024000061957F4F8F4F9F4F9923A9F0F92F96E940
:10241000BB279395F695879577956795B795F111B5
:10242000F8CFFAF4BB0F11F460FF1BC06F5F7F4F52
:102430008F4F9F4F16C0882311F096E911C0772364
:1024400021F09EE8872F762F05C0662371F096E86D
:10245000862F70E060E02AF09A95660F771F881F3C
:10246000DAF7880F9695879597F90895990F0008E0
:10247000550FAA0BE0E8FEEF16161706E807F90756
:10248000C0F012161306E407F50798F0621B730BF1
:10249000840B950B39F40A2661F0232B242B252B72
:1024A00021F408950A2609F4A140A6958FEF811D15
:1024B000811D089597F99F6780E870E060E00895B6
:1024C0009FEF80EC089500240A941616170618064C
:1024D0000906089500240A94121613061406050628
:1024E0000895092E0394000C11F4882352F0BB0FB9
:1024F00040F4BF2B11F460FF04C06F5F7F4F8F4F1C
:102500009F4F089557FD9058440F551F59F05F3F56
:1025100071F04795880F97FB991F61F09F3F79F005
:1025200087950895121613061406551FF2CF469587
:10253000F1DF08C0161617061806991FF1CF869509
:102540007105610508940895E894BB2766277727ED
:10255000CB0197F908958ADF08F48FEF08950BD027
:10256000C0CFB1DF28F0B6DF18F0952309F0A2CF75
:10257000A7CF1124EACFC6DFA0F3959FD1F3950F23
:1025800050E0551F629FF001729FBB27F00DB11DF7
:10259000639FAA27F00DB11DAA1F649F6627B00D87
:1025A000A11D661F829F2227B00DA11D621F739F70
:1025B000B00DA11D621F839FA00D611D221F749F7E
:1025C0003327A00D611D231F849F600D211D822FC5
:1025D000762F6A2F11249F5750408AF0E1F088230C
:1025E0004AF0EE0FFF1FBB1F661F771F881F915019
:1025F0005040A9F79E3F510570F05CCFA6CF5F3FDA
:10260000ECF3983EDCF3869577956795B795F7954B
:10261000E7959F5FC1F7FE2B880F911D96958795D3
:1026200097F90895A1E21A2EAA1BBB1BFD010DC04C
:10263000AA1FBB1FEE1FFF1FA217B307E407F50772
:1026400020F0A21BB30BE40BF50B661F771F881F4E
:10265000991F1A9469F760957095809590959B01E4
:10266000AC01BD01CF010895EE0FFF1F881F8BBF86
:102670000790F691E02D199405D0332312F48A1BAC
:102680009B0B10C0A29FB001B39FC001A39F700D10
:10269000811D1124911DB29F700D811D1124911D6A
:1026A0000895F0DFB7FF0895821B930B0895F89407
:0226B000FFCF5A
:1026B200000081058000010000000AD7233C7B1B3B
:1026C2009A3B00000000050000000000A04000004E
:1026D200104100007F43CDCCCC3D0000803F6666B8
:1026E20066BF000000000002031607160716071651
:1026F200071607160716071607FF2D050001FFFF2D
:10270200FFFFFFFFFFFFFFFFFFFFFFFF05040302C5
:1027120000000000AF0BD20E3F0B590B4B0B8E0B80
:0627220000000000880E1B
:00000001FF
