:100000000C9404010C9432070C9463070C9494072D
:100010000C94C5070C94F6070C9427080C94580808
:100020000C9489080C9431010C9431010C94310129
:100030000C9431010C9431010C9431010C94310178
:100040000C9431010C9431010C9431010C94310168
:100050000C9431010C9431010C9431010C94BA08C8
:100060000C9431010C9433010C942F020C94310147
:100070000C9431010C9431010C9431010C94310138
:100080000C9431010C9431010C9431010C94310128
:100090000C9472010C946E020C9431010C94310199
:1000A0000C9431010C9431010C9431010C94310108
:1000B0000C9431010C9431010C9431010C943101F8
:1000C0000C9431010C9431010C9431010C94B10168
:1000D0000C94AD020C9431010C94F0010C94EC02E0
:1000E0000C94310100002100240027002A002D007B
:1000F0003000330001010000040107010A01000083
:100100002200250028002B002E00310034000201BF
:100110000000050108010B0100002000230026005B
:1001200029002C002F00320000010000030106010D
:10013000090105050505070508080808020202026D
:100140000A0A080804040404010101010101010173
:100150000303030303030303040707070C0C0C0C3E
:100160000C0C0C0C02020202060606060606060627
:100170000B0B0B0B0B0B0B0B0102102020080810B4
:100180002040102040800201020108040201010207
:1001900004081020408080402010080402018004E0
:1001A000020180402010080402010804020101023B
:1001B0000408102040800102040810204080000044
:1001C000090A02080B0C0D070603040100000000D9
:1001D000000000000000000000000000000000001F
:1001E0000000000000000000000011100F000000DF
:1001F00000000000000000000000000000000000FF
:10020000000000005C04920511241FBECFEFD1E274
:10021000DEBFCDBF00E00CBF12E0A0E0B2E0E4EC36
:10022000F9E200E00BBF02C007900D92A836B107BB
:10023000D9F71BBE15E0A8E6B2E001C01D92A138B7
:10024000B107E1F712E0C8E0D2E004C02297FE0156
:100250000E94DC14C430D107C9F70E9419120C9413
:10026000E0140C9400001F920F920FB60F920BB681
:100270000F9211242F933F934F938F939F93EF935C
:10028000FF938091C00082FD1DC04091C600209167
:10029000A8023091A9022F5F3F4F2F7330708091D9
:1002A000AA029091AB022817390771F0E091A802D9
:1002B000F091A902E859FD4F40833093A9022093A1
:1002C000A80202C08091C600FF91EF919F918F918B
:1002D0004F913F912F910F900BBE0F900FBE0F903B
:1002E0001F9018951F920F920FB60F920BB60F9298
:1002F00011242F933F934F938F939F93EF93FF93EB
:100300008091C80082FD1DC04091CE002091300335
:10031000309131032F5F3F4F2F7330708091320344
:10032000909133032817390771F0E0913003F09171
:100330003103E051FD4F408330933103209330036C
:1003400002C08091CE00FF91EF919F918F914F91CC
:100350003F912F910F900BBE0F900FBE0F901F90EB
:1003600018951F920F920FB60F920BB60F92112491
:100370002F933F934F938F939F93EF93FF9380918E
:10038000D00082FD1DC04091D6002091B80330916D
:10039000B9032F5F3F4F2F7330708091BA03909154
:1003A000BB032817390771F0E091B803F091B90346
:1003B000E858FC4F40833093B9032093B80302C040
:1003C0008091D600FF91EF919F918F914F913F9136
:1003D0002F910F900BBE0F900FBE0F901F9018958E
:1003E0001F920F920FB60F920BB60F9211242F93FC
:1003F0003F934F938F939F93EF93FF93809130019F
:1004000082FD1DC04091360120914004309141048D
:100410002F5F3F4F2F7330708091420490914304BF
:100420002817390771F0E0914004F0914104E05041
:10043000FC4F4083309341042093400402C08091DC
:100440003601FF91EF919F918F914F913F912F91A5
:100450000F900BBE0F900FBE0F901F9018951F921C
:100460000F920FB60F920BB60F9211242F933F935A
:100470008F939F93EF93FF932091EC023091ED02C5
:100480008091EE029091EF022817390731F48091A4
:10049000C1008F7D8093C10014C0E091EE02F09105
:1004A000EF02E455FD4F20818091EE029091EF0222
:1004B00001968F7390709093EF028093EE022093D9
:1004C000C600FF91EF919F918F913F912F910F90D7
:1004D0000BBE0F900FBE0F901F9018951F920F929A
:1004E0000FB60F920BB60F9211242F933F938F9359
:1004F0009F93EF93FF932091740330917503809144
:100500007603909177032817390731F48091C90059
:100510008F7D8093C90014C0E0917603F09177033A
:10052000EC5CFC4F208180917603909177030196DB
:100530008F73907090937703809376032093CE000F
:10054000FF91EF919F918F913F912F910F900BBE53
:100550000F900FBE0F901F9018951F920F920FB61D
:100560000F920BB60F9211242F933F938F939F936B
:10057000EF93FF932091FC033091FD038091FE03E4
:100580009091FF032817390731F48091D1008F7DB6
:100590008093D10014C0E091FE03F091FF03E45476
:1005A000FC4F20818091FE039091FF0301968F7391
:1005B00090709093FF038093FE032093D600FF91E9
:1005C000EF919F918F913F912F910F900BBE0F90C4
:1005D0000FBE0F901F9018951F920F920FB60F929B
:1005E0000BB60F9211242F933F938F939F93EF930A
:1005F000FF9320918404309185048091860490912A
:1006000087042817390731F4809131018F7D809359
:10061000310114C0E0918604F0918704EC5BFB4F3C
:100620002081809186049091870401968F73907049
:10063000909387048093860420933601FF91EF9175
:100640009F918F913F912F910F900BBE0F900FBEF6
:100650000F901F901895AF92BF92DF92EF92FF928A
:100660000F931F93CF93DF93EC017A018B01DD246D
:10067000403081EE580780E0680780E0780711F08D
:10068000DD24D39491E0A92EB12CEC89FD89DD20E5
:1006900069F0C50108A002C0880F991F0A94E2F70B
:1006A000808360E079E08DE390E005C0108260E82F
:1006B00074E88EE190E0A80197010E94B8142150DF
:1006C000304040405040569547953795279580E1FA
:1006D0002030380720F0DD2011F0DD24D6CFE88966
:1006E000F9893083EA89FB89208319A2EE89FF8981
:1006F000408121E030E0C9010C8C02C0880F991FB5
:100700000A94E2F7482B4083EE89FF894081C901B2
:100710000D8C02C0880F991F0A94E2F7482B408382
:10072000EE89FF894081C9010E8C02C0880F991F94
:100730000A94E2F7482B4083EE89FF8980810F8C71
:1007400002C0220F331F0A94E2F72095282320834A
:10075000DF91CF911F910F91FF90EF90DF90BF90AD
:10076000AF900895DC011C96ED91FC911D97E05C23
:10077000FF4F2191319180819181281B390B2F737B
:100780003070C9010895DC011C96ED91FC911D9714
:10079000E05CFF4F20813181E054F040DF01AE5B2F
:1007A000BF4F8D919C9111972817390719F42FEF9E
:1007B0003FEF07C08D919C91E80FF91F8081282F92
:1007C00030E0C9010895DC011C96ED91FC911D9764
:1007D000E05CFF4F20813181E054F040DF01AE5BEF
:1007E000BF4F8D919C9111972817390719F42FEF5E
:1007F0003FEF10C08D919C911197E80FF91F208158
:100800008D919C91119701968F73907011969C9386
:100810008E9330E0C9010895DC0191968C919197F7
:10082000882339F05496ED91FC915597808186FF8D
:10083000F9CF91961C920895CF93DF93EC01EE854A
:10084000FF85E05CFF4F20813181E054F0402F5F55
:100850003F4F2F733070DF01AE5BBF4F8D919C9186
:10086000119728173907D1F3E05CFF4F8081918100
:10087000E054F040E80FF91F6083EE85FF85E05CEF
:10088000FF4F31832083EE89FF89208181E090E052
:100890000F8C02C0880F991F0A94E2F7282B20833F
:1008A00081E089A3EC89FD8980818064808381E077
:1008B00090E0DF91CF9108951F9310928B041092D6
:1008C0008A0428EE33E040E050E020938C0430931B
:1008D0008D0440938E0450938F0464E572E070930E
:1008E00089046093880488E692E09093950480934D
:1008F00094048CEA92E0909397048093960485EC9C
:1009000090E0909399048093980484EC90E0909305
:100910009B0480939A0480EC90E090939D048093D4
:100920009C0481EC90E090939F0480939E0482EC61
:1009300090E09093A1048093A00486EC90E09093C3
:10094000A3048093A20414E01093A404B3E0B09332
:10095000A504A7E0A093A604F5E0F093A704E1E0C6
:10096000E093A8041092AD041092AC042093AE045E
:100970003093AF044093B0045093B1047093AB0430
:100980006093AA0480EF92E09093B7048093B6043A
:1009900084E393E09093B9048093B8048DEC90E0E5
:1009A0009093BB048093BA048CEC90E09093BD04C8
:1009B0008093BC0488EC90E09093BF048093BE04C5
:1009C00089EC90E09093C1048093C0048AEC90E09D
:1009D0009093C3048093C2048EEC90E09093C5047E
:1009E0008093C4041093C604B093C704A093C804B2
:1009F000F093C904E093CA041092CF041092CE047D
:100A00002093D0043093D1044093D2045093D30464
:100A10007093CD046093CC0488E793E09093D9045D
:100A20008093D8048CEB93E09093DB048093DA04FA
:100A300085ED90E09093DD048093DC0484ED90E0FC
:100A40009093DF048093DE0480ED90E09093E104C6
:100A50008093E00481ED90E09093E3048093E204BE
:100A600082ED90E09093E5048093E40486ED90E0BD
:100A70009093E7048093E6041093E804B093E904AC
:100A8000A093EA04F093EB04E093EC041092F104D9
:100A90001092F0042093F2043093F3044093F40492
:100AA0005093F5047093EF046093EE0480E094E0BB
:100AB0009093FB048093FA0484E494E09093FD0403
:100AC0008093FC0485E391E09093FF048093FE04FF
:100AD00084E391E0909301058093000580E391E029
:100AE000909303058093020581E391E090930505BF
:100AF0008093040582E391E09093070580930605B7
:100B000086E391E0909309058093080510930A0508
:100B1000B0930B05A0930C05F0930D05E0930E0523
:100B20001F91089584E692E090931105809310053B
:100B300010921205109213051092140510921505CB
:100B400008958F929F92AF92BF92CF92DF92EF92D1
:100B5000FF920F931F93CF93DF934C016B017C01A6
:100B6000AA24BB24C0E0D0E0C601F70162814AE0BC
:100B700050E00E94A4068C01C6016EE20E940D06A0
:100B8000080F191FA00EB11E21960894E11CF11C3C
:100B9000C330D10549F7C601F40165814AE050E050
:100BA0000E94A4069501280F391FC901DF91CF913A
:100BB0001F910F91FF90EF90DF90CF90BF90AF907B
:100BC0009F908F900895CF92DF92EF92FF920F93B4
:100BD0001F93CF93DF937C016B018A01C0E0D0E0CB
:100BE0000FC0D6016D916D01D701ED91FC9101907F
:100BF000F081E02DC7011995C80FD91F0150104091
:100C00000115110571F7CE01DF91CF911F910F9161
:100C1000FF90EF90DF90CF900895DC01ED91FC9173
:100C20000190F081E02D19950895CF93DF93EC01A9
:100C30006115710519F420E030E00FC0DB010D9063
:100C40000020E9F71197A61BB70BE881F981028014
:100C5000F381E02DAD0119959C01C901DF91CF9180
:100C600008954F925F927F928F929F92AF92BF9220
:100C7000CF92DF92EF92FF920F931F93DF93CF9368
:100C8000CDB7DEB7A1970FB6F894DEBF0FBECDBFCC
:100C90002C01742ECB01223008F42AE019A231E293
:100CA000C32ED12CCC0EDD1E822E9924AA24BB2467
:100CB000672D752FA50194010E94B81479018A014E
:100CC000C801B701A50194010E949914472D461B44
:100CD0000894C108D1084A3014F4405D01C0495C51
:100CE000F6014083E114F1040105110521F07E2C89
:100CF0005F2DC801DDCFC201B6010E941506A19685
:100D00000FB6F894DEBF0FBECDBFCF91DF911F911C
:100D10000F91FF90EF90DF90CF90BF90AF909F909A
:100D20008F907F905F904F900895DC0121153105E1
:100D300041F4ED91FC910190F081E02D642F199523
:100D400008950E9431060895EF92FF920F931F932A
:100D50009A01E62EFF2400E010E0B801A7010E94EE
:100D600095061F910F91FF90EF900895883008F03D
:100D700078C0E82FF0E0EE0FFF1FEA5EFA4F7183B4
:100D800060838330D9F0843030F4813009F444C07A
:100D9000823060F439C0853051F18530D8F086302A
:100DA00009F446C0873009F05CC04FC080916900EB
:100DB0008C7F842B80936900E89A08958091690064
:100DC000440F551F440F551F837F842B8093690068
:100DD000E99A08958091690074E0440F551F7A954F
:100DE000E1F78F7C842B80936900EA9A08958091C3
:100DF000690066E0440F551F6A95E1F78F73842BF5
:100E000080936900EB9A089580916A008C7F842B0F
:100E100080936A00EC9A089580916A00440F551FF0
:100E2000440F551F837F842B80936A00ED9A0895A9
:100E300080916A0024E0440F551F2A95E1F78F7CCA
:100E4000842B80936A00EE9A089580916A0096E060
:100E5000440F551F9A95E1F78F73842B80936A0096
:100E6000EF9A08951F920F920FB60F920BB60F9242
:100E700011242F933F934F935F936F937F938F939F
:100E80009F93AF93BF93EF93FF9380911A05909137
:100E90001B05892B29F0E0911A05F0911B05199586
:100EA000FF91EF91BF91AF919F918F917F916F9142
:100EB0005F914F913F912F910F900BBE0F900FBEFE
:100EC0000F901F9018951F920F920FB60F920BB6AE
:100ED0000F9211242F933F934F935F936F937F93C0
:100EE0008F939F93AF93BF93EF93FF9380911C05D4
:100EF00090911D05892B29F0E0911C05F0911D05AD
:100F00001995FF91EF91BF91AF919F918F917F9133
:100F10006F915F914F913F912F910F900BBE0F906A
:100F20000FBE0F901F9018951F920F920FB60F9241
:100F30000BB60F9211242F933F934F935F936F93B0
:100F40007F938F939F93AF93BF93EF93FF93809182
:100F50001E0590911F05892B29F0E0911E05F09147
:100F60001F051995FF91EF91BF91AF919F918F91BF
:100F70007F916F915F914F913F912F910F900BBE99
:100F80000F900FBE0F901F9018951F920F920FB6E3
:100F90000F920BB60F9211242F933F934F935F93B1
:100FA0006F937F938F939F93AF93BF93EF93FF9331
:100FB0008091200590912105892B29F0E091200551
:100FC000F09121051995FF91EF91BF91AF919F91FC
:100FD0008F917F916F915F914F913F912F910F90E2
:100FE0000BBE0F900FBE0F901F9018951F920F927F
:100FF0000FB60F920BB60F9211242F933F934F937E
:101000005F936F937F938F939F93AF93BF93EF9370
:10101000FF938091160590911705892B29F0E09197
:101020001605F09117051995FF91EF91BF91AF91BA
:101030009F918F917F916F915F914F913F912F91F0
:101040000F900BBE0F900FBE0F901F9018951F9220
:101050000F920FB60F920BB60F9211242F933F935E
:101060004F935F936F937F938F939F93AF93BF93B0
:10107000EF93FF938091180590911905892B29F022
:10108000E0911805F09119051995FF91EF91BF9125
:10109000AF919F918F917F916F915F914F913F9110
:1010A0002F910F900BBE0F900FBE0F901F901895B1
:1010B0001F920F920FB60F920BB60F9211242F931F
:1010C0003F934F935F936F937F938F939F93AF93D0
:1010D000BF93EF93FF938091220590912305892B75
:1010E00029F0E0912205F09123051995FF91EF91E8
:1010F000BF91AF919F918F917F916F915F914F9130
:101100003F912F910F900BBE0F900FBE0F901F902D
:1011100018951F920F920FB60F920BB60F921124D3
:101120002F933F934F935F936F937F938F939F93EF
:10113000AF93BF93EF93FF93809124059091250582
:10114000892B29F0E0912405F09125051995FF914F
:10115000EF91BF91AF919F918F917F916F915F912F
:101160004F913F912F910F900BBE0F900FBE0F909C
:101170001F9018951F920F920FB60F9211242F9364
:101180003F938F939F93AF93BF9380912A05909144
:101190002B05A0912C05B0912D0530912E050196BF
:1011A000A11DB11D232F2D5F2D3720F02D57019646
:1011B000A11DB11D20932E0580932A0590932B0528
:1011C000A0932C05B0932D058091260590912705BD
:1011D000A0912805B09129050196A11DB11D80930C
:1011E000260590932705A0932805B0932905BF9164
:1011F000AF919F918F913F912F910F900FBE0F90C4
:101200001F9018959FB7F8942091260530912705D7
:10121000409128055091290586B5A89B06C08F3FAF
:1012200021F02F5F3F4F4F4F5F4F9FBF542F432FF2
:10123000322F2227280F311D411D511D82E0220F20
:10124000331F441F551F8A95D1F7B901CA0108956C
:10125000789484B5826084BD84B5816084BD85B591
:10126000826085BD85B5816085BDEEE6F0E0808158
:1012700081608083E1E8F0E0108280818260808379
:10128000808181608083E0E8F0E0808181608083FC
:10129000E1EBF0E0808184608083E0EBF0E080812E
:1012A00081608083E1E9F0E08081826080838081D9
:1012B00081608083E0E9F0E0808181608083E1EA01
:1012C000F0E0808182608083808181608083E0EAB9
:1012D000F0E0808181608083E1E2F1E080818260E2
:1012E0008083808181608083E0E2F1E080818160A1
:1012F0008083EAE7F0E0808184608083808182607F
:101300008083808181608083808180688083109267
:10131000C10008951F93CF93DF93182FEB0161E075
:101320000E946A0A209709F4CAC0CF3FD10509F488
:10133000C9C0E12FF0E0E254FE4F8491893009F4F6
:1013400066C08A30B0F48430F1F1853040F48230E8
:1013500059F1833070F5813009F0AEC020C087307C
:1013600009F443C0883008F048C0863009F0A4C0B2
:1013700034C08D3009F478C08E3038F48B3009F4E5
:101380005AC08C3008F066C04CC0803109F480C06F
:10139000813109F487C08F3009F08EC06FC084B5E9
:1013A000806884BDC7BD92C084B5806284BDC8BD5D
:1013B0008DC080918000806880938000D0938900E8
:1013C000C093880083C080918000806280938000F9
:1013D000D0938B00C0938A0079C08091B000806860
:1013E0008093B000C093B30071C08091B000806260
:1013F0008093B000C093B40069C080919000806871
:1014000080939000D0939900C09398005FC0809122
:101410009000806280939000D0939B00C0939A00CC
:1014200055C080919000886080939000D0939D007B
:10143000C0939C004BC08091A00080688093A00066
:101440008091A0008F7B8093A000D093A900C093CF
:10145000A8003CC08091A00080628093A000D0933F
:10146000AB00C093AA0032C08091A0008860809336
:10147000A000D093AD00C093AC0028C080912001A3
:10148000806880932001D0932901C09328011EC059
:1014900080912001806280932001D0932B01C09322
:1014A0002A0114C080912001886080932001D0938C
:1014B0002D01C0932C010AC0C038D1051CF4812F26
:1014C00060E002C0812F61E00E941D0BDF91CF918F
:1014D0001F910895CF93DF93482F50E0CA01885899
:1014E0009E4FFC0134914E5C5E4FFA01849188233B
:1014F00069F190E0880F991FFC01EC51FF4FA59115
:10150000B491FC01E250FF4FC591D491662351F490
:101510002FB7F8948C91932F909589238C93888181
:1015200089230BC0623061F42FB7F8948C91932F0C
:10153000909589238C938881832B88832FBF06C045
:101540009FB7F8948C91832B8C939FBFDF91CF91A1
:101550000895893009F449C08A30A0F4843051F1EB
:10156000853040F4823079F1833000F5813009F024
:1015700063C026C0873079F1883098F5863009F04D
:101580005BC025C08D3009F442C08E3028F48B300A
:10159000B1F18C30C0F52DC0803109F442C08131E9
:1015A00009F445C08F3009F047C037C080918000F2
:1015B0008F7703C0809180008F7D80938000089595
:1015C00084B58F7702C084B58F7D84BD08958091E6
:1015D000B0008F7703C08091B0008F7D8093B00002
:1015E0000895809190008F7707C0809190008F7D43
:1015F00003C080919000877F809390000895809130
:10160000A0008F7707C08091A0008F7D03C08091DC
:10161000A000877F8093A0000895809120018F779C
:1016200003C0809120018F7D8093200108958091D7
:101630002001877F809320010895FF920F931F93CD
:10164000F62E482F50E0CA0182549E4FFC0124918F
:10165000CA0188589E4FFC0114914E5C5E4FFA01FE
:1016600004910023C9F0222319F0822F0E94A90AB5
:10167000E02FF0E0EE0FFF1FE250FF4FA591B49175
:101680009FB7F894FF2021F48C911095812302C01C
:101690008C91812B8C939FBF1F910F91FF90089588
:1016A0000F931F93482F50E0CA0182549E4FFC01B4
:1016B0002491CA0188589E4FFC0104914E5C5E4FF4
:1016C000FA011491112319F420E030E015C022230F
:1016D00019F0822F0E94A90A812F90E0880F991F8C
:1016E000885E9E4FFC01A591B4918C9120E030E082
:1016F000802311F021E030E0C9011F910F9108957E
:101700008130910579F0823091051CF4892B39F0F4
:1017100008958230910549F0039781F40BC088E861
:1017200094E005C08AEA94E002C08CEC94E00E9448
:10173000E30508958EEE94E00E94E305089581305C
:10174000910579F0823091051CF4892B39F00895C8
:101750008230910549F0039781F40BC088E894E04A
:1017600005C08AEA94E002C08CEC94E00E942B034E
:1017700008958EEE94E00E942B0308958231910526
:1017800009F18331910534F48230910579F00397A2
:10179000E1F409C08431910579F0843191057CF040
:1017A000459799F406C021E030E011C020E030E018
:1017B0000EC022E030E00BC023E030E008C024E09F
:1017C00030E005C025E030E002C02FEF3FEFC90157
:1017D0000895AF92BF92CF92DF92EF92FF920F9354
:1017E0001F93DF93CF93CDB7DEB77C016B015A0116
:1017F000F901608171818281938120E030E040E8CD
:101800005FE30E94E3128823E1F5F801808190E014
:10181000880F991FFC0163E0EE0FFF1F6A95E1F747
:10182000E81BF90BE15DFA4F84819581F701918303
:101830008083F801808190E0880F991FFC0143E0CC
:10184000EE0FFF1F4A95E1F7E81BF90BE15DFA4F38
:1018500082859385F60191838083F801808190E0F1
:10186000880F991FFC0123E0EE0FFF1F2A95E1F777
:10187000E81BF90BE15DFA4F84859585F5019183AD
:101880008083CF91DF911F910F91FF90EF90DF90B8
:10189000CF90BF90AF9008958F929F92AF92BF92DA
:1018A000CF92DF92EF92FF920F931F93DF93CF932C
:1018B000CDB7DEB7590178018601F90160817181E8
:1018C0008281938120E030E040E85FE30E94E312F0
:1018D000882309F4EFC0F801208130E0F70180810E
:1018E00090E0880F991FFC0153E0EE0FFF1F5A95FF
:1018F000E1F7E81BF90BE15DFA4F31832083F70133
:10190000808190E0F401208130E0FC0143E0EE0FA3
:10191000FF1F4A95E1F7E81BF90BEE0FFF1FEF5C85
:10192000FA4F31832083F701808190E0880F991F5F
:10193000FC0113E0EE0FFF1F1A95E1F7E81BF90B0E
:10194000E15DFA4F8081918160E00E946A0AF701AF
:10195000808190E0FC01B3E0EE0FFF1FBA95E1F744
:10196000E81BF90BEE0FFF1FEF5CFA4F80819181AE
:1019700060E00E946A0AF701808190E0880F991F59
:10198000FC0163E0EE0FFF1F6A95E1F7E81BF90B1E
:10199000E15DFA4F8081918161E00E941D0BF701AA
:1019A000808190E0FC0153E0EE0FFF1F5A95E1F7B4
:1019B000E81BF90BEE0FFF1FEF5CFA4F808191815E
:1019C00061E00E941D0BF701808190E0880F991F54
:1019D000FC0123E0EE0FFF1F2A95E1F7E81BF90B4E
:1019E000E15DFA4F13861286F701808190E0880F3F
:1019F000991FFC0113E0EE0FFF1F1A95E1F7E81B9A
:101A0000F90BE15DFA4F15861486F701808181306C
:101A1000D9F0813020F0823009F043C02AC0809193
:101A20002F05909130050E94BE0B6BE77FE041E0EF
:101A300050E00E94B60680913105909132050E94D7
:101A4000BE0B6DEE7EE029C080913D0590913E0574
:101A50000E94BE0B63E97EE041E050E00E94B606C2
:101A600080913F05909140050E94BE0B69E37EE0A6
:101A700014C080914B0590914C050E94BE0B6FEDF8
:101A80007DE041E050E00E94B60680914D059091C6
:101A90004E050E94BE0B65E87DE041E050E00E94EB
:101AA000B60680E090E0A0E8BFE3F5018083918373
:101AB000A283B383F501608171818281938120E0EB
:101AC00030E040E85FE30E94E312882389F4F701E5
:101AD000808190E0880F991FFC01A3E0EE0FFF1FAB
:101AE000AA95E1F7E81BF90BE15DFA4F1186108624
:101AF000CF91DF911F910F91FF90EF90DF90CF90EA
:101B0000BF90AF909F908F9008950F931F93CF93A6
:101B1000DF9380914B0590914C050E94500BEC0196
:101B2000009151051091520520E030E024C0B90128
:101B3000882777FD8095982F0E94821320E030E05F
:101B400040E050E00E947F1220E030E040E050E0B2
:101B50000E947F1220E030E040E450E40E947F12B7
:101B600020E030E040E450E40E947E120E944F13D7
:101B70009B012F5F3F4F20173107CCF280914D051D
:101B800090914E050E94500B019719F4219749F44A
:101B900002C0CD2B31F480914F05909150050196F4
:101BA00005C080914F059091500501979093500585
:101BB00080934F05DF91CF911F910F9108950F935F
:101BC0001F93CF93DF9380914D0590914E050E9416
:101BD000500BEC01009151051091520520E030E0CE
:101BE00024C0B901882777FD8095982F0E94821321
:101BF00020E030E040E050E00E947F1220E030E042
:101C000040E050E00E947F1220E030E040E450E4E9
:101C10000E947F1220E030E040E450E40E947E12F7
:101C20000E944F139B012F5F3F4F20173107CCF2CB
:101C300080914B0590914C050E94500B019719F42F
:101C4000CD2B49F402C0219731F480914F0590913A
:101C50005005019605C080914F0590915005019760
:101C60009093500580934F05DF91CF911F910F9175
:101C700008950F931F93CF93DF9380913D0590912B
:101C80003E050E94500BEC01009143051091440564
:101C900020E030E024C0B901882777FD8095982F97
:101CA0000E94821320E030E040E050E00E947F126A
:101CB00020E030E040E050E00E947F1220E030E081
:101CC00040E450E40E947F1220E030E040E450E421
:101CD0000E947E120E944F139B012F5F3F4F2017DF
:101CE0003107CCF280913F05909140050E94500B46
:101CF000019719F4219749F402C0CD2B31F480915A
:101D0000410590914205019605C080914105909151
:101D1000420501979093420580934105DF91CF9151
:101D20001F910F9108950F931F93CF93DF9380918D
:101D30003F05909140050E94500BEC010091430536
:101D40001091440520E030E024C0B901882777FDD8
:101D50008095982F0E94821320E030E040E050E010
:101D60000E947F1220E030E040E050E00E947F12AD
:101D700020E030E040E450E40E947F1220E030E0B8
:101D800040E450E40E947E120E944F139B012F5F9B
:101D90003F4F20173107CCF280913D0590913E05D1
:101DA0000E94500B019719F4CD2B49F402C02197E2
:101DB00031F48091410590914205019605C08091D2
:101DC000410590914205019790934205809341050A
:101DD000DF91CF911F910F9108950F931F93CF9390
:101DE000DF9380912F05909130050E94500BEC01FC
:101DF000009135051091360520E030E024C0B9018E
:101E0000882777FD8095982F0E94821320E030E08C
:101E100040E050E00E947F1220E030E040E050E0DF
:101E20000E947F1220E030E040E450E40E947F12E4
:101E300020E030E040E450E40E947E120E944F1304
:101E40009B012F5F3F4F20173107CCF28091310566
:101E5000909132050E94500B019719F4219719F5C2
:101E600002C0CD2B01F580913305909134058F5F31
:101E70009F4769F48091390590913A0501969093B6
:101E80003A058093390510923405109233058091FC
:101E90003305909134050196909334058093330572
:101EA00081E090E01FC0809133059091340581500E
:101EB000904869F480913B0590913C050196909380
:101EC0003C0580933B0510923405109233058091B8
:101ED0003305909134050197909334058093330531
:101EE0008FEF9FEF9093380580933705DF91CF9167
:101EF0001F910F9108950F931F93CF93DF938091BC
:101F00003105909132050E94500BEC01009135058E
:101F10001091360520E030E024C0B901882777FD14
:101F20008095982F0E94821320E030E040E050E03E
:101F30000E947F1220E030E040E050E00E947F12DB
:101F400020E030E040E450E40E947F1220E030E0E6
:101F500040E450E40E947E120E944F139B012F5FC9
:101F60003F4F20173107CCF280912F05909130051B
:101F70000E94500B019719F4CD2B19F502C021973F
:101F800001F580913305909134058F5F9F4769F487
:101F90008091390590913A05019690933A05809386
:101FA00039051092340510923305809133059091D4
:101FB00034050196909334058093330581E090E0D9
:101FC0001FC080913305909134058150904869F489
:101FD00080913B0590913C05019690933C05809340
:101FE0003B05109234051092330580913305909192
:101FF0003405019790933405809333058FEF9FEF5D
:102000009093380580933705DF91CF911F910F9101
:102010000895FC0180819181A281B381809359054B
:1020200090935A05A0935B05B0935C0580915C0585
:10203000FB01808380915B05818380915A058283B7
:102040008091590583830895089510925E0510923A
:102050005D0582E1EFE6F5E0DF011D928A95E9F783
:1020600080E1EFE5F5E0DF011D928A95E9F78091C7
:10207000250261E00E946A0A8091290261E00E94C3
:102080006A0A80E090E0A0E0B0E080935F05909362
:102090006005A0936105B093620580912102909143
:1020A0002202A0912302B0912402809363059093B1
:1020B0006405A0936505B0936605809149029091EF
:1020C0004A02A0914B02B0914C0280936705909315
:1020D0006805A0936905B0936A0508958F929F9251
:1020E000AF92BF92CF92DF92EF92FF920F931F9326
:1020F000CF93DF930F920F9267E775E0AB014C5FD0
:102100005F4FEDE4F2E0DF01129681E090E0CDB7A1
:10211000DEB79A838983CB016E5F7F4F2FE535E071
:102120008F01EE24FF24E39431966F01E1E0AE2E9F
:10213000B12C4D010E944C0C80916F05909170055F
:10214000A0917105B0917205809363059093640529
:10215000A0936505B093660580916B0590916C0521
:10216000A0916D05B0916E05809367059093680509
:10217000A0936905B0936A050F900F90DF91CF91FE
:102180001F910F91FF90EF90DF90CF90BF90AF9095
:102190009F908F9008958F929F92AF92BF92CF920F
:1021A000DF92EF92FF920F931F93E0903102F09035
:1021B00032020091330210913402C801B70120E0CD
:1021C00030E040E050E00E94321488232CF060E0C0
:1021D00070E080E090E008C017FB109517F91095AB
:1021E00060E070E080E89FE30E944F139B01AC0128
:1021F00080912502622F0E941D0BC801B70120911A
:1022000035023091360240913702509138020E94D7
:10221000E7122091390230913A0240913B025091ED
:102220003C020E9436147B018C0120E030E040E843
:1022300053E40E94E31287FD02C06FEF10C0C80193
:10224000B70120E030E040E050E00E94321487FF08
:1022500002C060E004C0C801B7010E94541380911D
:10226000290270E00E948A090F920F9281E090E0AB
:10227000EDB7FEB79283818387E795E069E775E064
:102280004BE755E02FE535E00DE412E0B1E0EB2E31
:10229000F12CAEE4CA2EA2E0DA2EF1E0AF2EB12C82
:1022A000EFE48E2EE2E09E2E0E94E90B609179050C
:1022B00070917A05882777FD8095982F2FEF3FE75B
:1022C00040E050E00E9499147B018C0160917B05F5
:1022D00070917C05882777FD8095982F21E030E864
:1022E0004FEF5FEF0E949914E60EF71E081F191FAB
:1022F0006091770570917805882777FD8095982FF4
:102300006E0D7F1D801F911F0E94821320911D0260
:1023100030911E0240911F02509120020E943614FB
:102320007B018C0160936F0570937005809371053C
:102330009093720560E070E080E89FE320911902BD
:1023400030911A0240911B0250911C020E94E71228
:102350005B016C01C801B7012091630530916405F0
:1023600040916505509166050E947E129B01AC016B
:10237000C601B5010E9436147B018C0160914502B3
:102380007091460280914702909148022091670522
:10239000309168054091690550916A050E94361494
:1023A0009B01AC01C801B7010E947E12209141023D
:1023B0003091420240914302509144020E94E71240
:1023C0009B01AC0160936B0570936C0580936D0568
:1023D00090936E0560913D0270913E0280913F02A4
:1023E000909140020E9436146093730570937405B7
:1023F00080937505909376050F900F9083E795E095
:102400006DE775E00E94091080912D0290912E02D7
:102410006DE775E044E050E00E94800B1F910F9142
:10242000FF90EF90DF90CF90BF90AF909F908F90F4
:102430000895AF92BF92CF92DF92EF92FF920F93E7
:102440001F93CF93DF930E9428090E9425108DE0EF
:1024500061E00E946A0A8DE060E00E941D0B80E04E
:1024600090E040E855E260E070E00E949F0B80E061
:1024700090E060E072E04AE150E00E94800BC09181
:102480006602D0916702AA24BB24650124C00E9481
:1024900002097B018C01DC01CB018A199B09AC0983
:1024A000BD0980519742A040B040A8F00E94CB10D7
:1024B0000E946E100E9402096E197F09800B910B19
:1024C000615177428040904020F08DE061E00E94B1
:1024D0001D0B5701680188819981892BC1F20E94E7
:1024E000241080E090E0DF91CF911F910F91FF9039
:1024F000EF90DF90CF90BF90AF9008955058BB27DA
:10250000AA270ED075C166D130F06BD120F031F41E
:102510009F3F11F41EF45BC10EF4E095E7FB51C13F
:10252000E92F77D180F3BA176207730784079507FD
:1025300018F071F49EF58FC10EF4E0950B2EBA2FB2
:10254000A02D0B01B90190010C01CA01A0011124B9
:10255000FF27591B99F0593F50F4503E68F11A1665
:10256000F040A22F232F342F4427585FF3CF4695F6
:1025700037952795A795F0405395C9F77EF41F1618
:10258000BA0B620B730B840BBAF09150A1F0FF0FE2
:10259000BB1F661F771F881FC2F70EC0BA0F621FCE
:1025A000731F841F48F4879577956795B795F795BE
:1025B0009E3F08F0B3CF9395880F08F09927EE0F50
:1025C000979587950895D9D008F481E008950CD0A7
:1025D0000FC107D140F0FED030F021F45F3F19F079
:1025E000F0C0511139C1F3C014D198F39923C9F344
:1025F0005523B1F3951B550BBB27AA276217730709
:10260000840738F09F5F5F4F220F331F441FAA1FBC
:10261000A9F333D00E2E3AF0E0E830D0915050407C
:10262000E695001CCAF729D0FE2F27D0660F771F2A
:10263000881FBB1F261737074807AB07B0E809F00C
:10264000BB0B802DBF01FF2793585F4F2AF09E3FA1
:10265000510568F0B6C000C15F3FECF3983EDCF373
:10266000869577956795B795F7959F5FC9F7880F1A
:10267000911D9695879597F90895E1E0660F771F6C
:10268000881FBB1F621773078407BA0720F0621BFD
:10269000730B840BBA0BEE1F88F7E095089504D0F6
:1026A0006894B111D9C00895BCD088F09F5790F0BC
:1026B000B92F9927B751A0F0D1F0660F771F881F67
:1026C000991F1AF0BA95C9F712C0B13081F0C3D082
:1026D000B1E00895C0C0672F782F8827B85F39F020
:1026E000B93FCCF3869577956795B395D9F73EF4C6
:1026F00090958095709561957F4F8F4F9F4F08956E
:10270000E89409C097FB3EF490958095709561958B
:102710007F4F8F4F9F4F9923A9F0F92F96E9BB2741
:102720009395F695879577956795B795F111F8CFBD
:10273000FAF4BB0F11F460FF1BC06F5F7F4F8F4F28
:102740009F4F16C0882311F096E911C0772321F01E
:102750009EE8872F762F05C0662371F096E8862FB6
:1027600070E060E02AF09A95660F771F881FDAF70D
:10277000880F9695879597F90895990F0008550F3A
:10278000AA0BE0E8FEEF16161706E807F907C0F0F7
:1027900012161306E407F50798F0621B730B840BFF
:1027A000950B39F40A2661F0232B242B252B21F4D9
:1027B00008950A2609F4A140A6958FEF811D811D79
:1027C000089597F99F6780E870E060E008959FEFB3
:1027D00080EC089500240A941616170618060906B8
:1027E000089500240A941216130614060506089587
:1027F000092E0394000C11F4882352F0BB0F40F40F
:10280000BF2B11F460FF04C06F5F7F4F8F4F9F4F4E
:10281000089557FD9058440F551F59F05F3F71F0D0
:102820004795880F97FB991F61F09F3F79F0879537
:102830000895121613061406551FF2CF4695F1DFC0
:1028400008C0161617061806991FF1CF8695710550
:10285000610508940895E894BB2766277727CB0184
:1028600097F908958ADF08F48FEF08950BD0C0CF51
:10287000B1DF28F0B6DF18F0952309F0A2CFA7CF7B
:102880001124EACFC6DFA0F3959FD1F3950F50E056
:10289000551F629FF001729FBB27F00DB11D639F12
:1028A000AA27F00DB11DAA1F649F6627B00DA11DB8
:1028B000661F829F2227B00DA11D621F739FB00D5E
:1028C000A11D621F839FA00D611D221F749F3327CE
:1028D000A00D611D231F849F600D211D822F762F67
:1028E0006A2F11249F5750408AF0E1F088234AF064
:1028F000EE0FFF1FBB1F661F771F881F91505040B0
:10290000A9F79E3F510570F05CCFA6CF5F3FECF377
:10291000983EDCF3869577956795B795F795E7959B
:102920009F5FC1F7FE2B880F911D9695879597F9AC
:102930000895629FD001739FF001829FE00DF11D09
:10294000649FE00DF11D929FF00D839FF00D749F29
:10295000F00D659FF00D9927729FB00DE11DF91FD5
:10296000639FB00DE11DF91FBD01CF011124089532
:10297000A1E21A2EAA1BBB1BFD010DC0AA1FBB1F83
:10298000EE1FFF1FA217B307E407F50720F0A21BF5
:10299000B30BE40BF50B661F771F881F991F1A9462
:1029A00069F760957095809590959B01AC01BD018C
:1029B000CF010895EE0FFF1F0590F491E02D1994BB
:0429C000F894FFCFB9
:1029C4002A2A2A7374617274696E67207468652098
:1029D4006D6F64656C2A2A2A000AD7233C7B1B9AF4
:1029E4003B0000000004000000050000000000009F
:1029F400000000A0400000104100007F43CDCCCC7B
:102A04003D0000803F666666BF00000000000203D0
:102A1400000000001C04E305B203E303C3030C0439
:082A240000000000A1055D05A2
:00000001FF
